"""
Data useful for tests
"""

# A block from `block` REST API with no details.
# Transactions have been pruned to only 3.
BLOCK_REST_JSON = {
    'bits': '170a40c0',
    'chainwork': '00000000000000000000000000000000000000002a9b26bf7c9d99cdab5f996a',
    'confirmations': 297,
    'difficulty': 27452707696466.39,
    'hash': '00000000000000000005ae33e312277212797c0d4b9f182d174c8bf5cb1336a4',
    'height': 728242,
    'mediantime': 1647797732,
    'merkleroot': 'd87cedf329a7d0b513e1a95dc04ecc00a6ef504429278fc4282877093b28b72f',
    'nTx': 3230,
    'nextblockhash': '00000000000000000003e48dc10258a40364844fe2b563a851abf55bf4879d09',
    'nonce': 3470240579,
    'previousblockhash': '0000000000000000000a1ad946a74ed59928cf72d9ba4e4ee2197e33ea245b9c',
    'size': 1481985,
    'strippedsize': 837012,
    'time': 1647800706,
    'tx': ['eb495e3b9c09f91f1b86f9bc7517d82b9710fbeaf973b5e859d617abf770e84a',
           '1cc7a992f7e3b62f775330cd8f94f7440fb5d9247b40c2147a2fa680365c16f4',
           '089d0cbaead4f2d4c3840d7702c8889ccb6660e88194161f8797d5becab98610'],
    'version': 1073676292,
    'versionHex': '3fff0004',
    'weight': 3993021
}

# A block from `block` REST API with no details.
# Transactions have been pruned to only 3, coinbase included, it's the first one.
BLOCKV3_REST_JSON = {
    'bits': '170a40c0',
    'chainwork': '00000000000000000000000000000000000000002a9b26bf7c9d99cdab5f996a',
    'confirmations': 298,
    'difficulty': 27452707696466.39,
    'hash': '00000000000000000005ae33e312277212797c0d4b9f182d174c8bf5cb1336a4',
    'height': 728242,
    'mediantime': 1647797732,
    'merkleroot': 'd87cedf329a7d0b513e1a95dc04ecc00a6ef504429278fc4282877093b28b72f',
    'nTx': 3230,
    'nextblockhash': '00000000000000000003e48dc10258a40364844fe2b563a851abf55bf4879d09',
    'nonce': 3470240579,
    'previousblockhash': '0000000000000000000a1ad946a74ed59928cf72d9ba4e4ee2197e33ea245b9c',
    'size': 1481985,
    'strippedsize': 837012,
    'time': 1647800706,
    'tx': [{'hash': '3f6256fa746eb8d477ff50b56a938b9b7bfa09bf2d34e588b5875cbeacfc9d52',
            'hex': '020000000001010000000000000000000000000000000000000000000000000000000000000000ffffffff4e03b21c0b0410e5b343627463706f6f6c2f3262637573fabe6d6d4a18534af2118add9e45695a211a6d5fee5526e13f43a2805fb62c653ba6e706020000008e9b20aa17170316420b010000000000ffffffff034da8c625000000001976a91474e878616bd5e5236ecb22667627eeecbff54b9f88ac0000000000000000266a24aa21a9ed21ffff0d655f5b2fcd82ffbb4feadc68ca14428c8da09e1a984c51165dd7db360000000000000000266a24b9e11b6ddb05e65818bf7d23bf96e72cf67cd97b8737aa77263856de6009f4b561f796100120000000000000000000000000000000000000000000000000000000000000000000000000',
            'locktime': 0,
            'size': 293,
            'txid': 'eb495e3b9c09f91f1b86f9bc7517d82b9710fbeaf973b5e859d617abf770e84a',
            'version': 2,
            'vin': [{
                'coinbase': '03b21c0b0410e5b343627463706f6f6c2f3262637573fabe6d6d4a18534af2118add9e45695a211a6d5fee5526e13f43a2805fb62c653ba6e706020000008e9b20aa17170316420b010000000000',
                'sequence': 4294967295,
                'txinwitness': ['0000000000000000000000000000000000000000000000000000000000000000']}],
            'vout': [{'n': 0,
                      'scriptPubKey': {'address': '1Bf9sZvBHPFGVPX71WX2njhd1NXKv5y7v5',
                                       'asm': 'OP_DUP OP_HASH160 '
                                              '74e878616bd5e5236ecb22667627eeecbff54b9f '
                                              'OP_EQUALVERIFY OP_CHECKSIG',
                                       'hex': '76a91474e878616bd5e5236ecb22667627eeecbff54b9f88ac',
                                       'type': 'pubkeyhash'},
                      'value': 6.33776205},
                     {'n': 1,
                      'scriptPubKey': {'asm': 'OP_RETURN '
                                              'aa21a9ed21ffff0d655f5b2fcd82ffbb4feadc68ca14428c8da09e1a984c51165dd7db36',
                                       'hex': '6a24aa21a9ed21ffff0d655f5b2fcd82ffbb4feadc68ca14428c8da09e1a984c51165dd7db36',
                                       'type': 'nulldata'},
                      'value': 0.0},
                     {'n': 2,
                      'scriptPubKey': {'asm': 'OP_RETURN '
                                              'b9e11b6ddb05e65818bf7d23bf96e72cf67cd97b8737aa77263856de6009f4b561f79610',
                                       'hex': '6a24b9e11b6ddb05e65818bf7d23bf96e72cf67cd97b8737aa77263856de6009f4b561f79610',
                                       'type': 'nulldata'},
                      'value': 0.0}],
            'vsize': 266,
            'weight': 1064},
           {'fee': 0.001,
            'hash': '1cc7a992f7e3b62f775330cd8f94f7440fb5d9247b40c2147a2fa680365c16f4',
            'hex': '0200000001c649ecf881be04d334aaad3354f655ec4174ff5a1a9efdce9501281a9da483bf020000008a47304402202e369e5d812667262bef41a6e178b1ca359b75df34c78dff387d7f0a71d96110022006f1813f19f92bfaa6ff91b58299c400f43f4af86b2b47053a22925164f476c60141047146f0e0fcb3139947cf0beb870fe251930ca10d4545793d31033e801b5219abf56c11a3cf3406ca590e4c14b0dab749d20862b3adc4709153c280c2a78be10cffffffff036a55ed000000000017a914b399f80ad77683162aa454dfce2d5699e25ca6d98780b2e60e0000000017a9146127dbc5bfae6f1273cfea6b1c4904d22593e58c87ad16830b000000001976a91443849383122ebb8a28268a89700c9f723663b5b888ac00000000',
            'locktime': 0,
            'size': 287,
            'txid': '1cc7a992f7e3b62f775330cd8f94f7440fb5d9247b40c2147a2fa680365c16f4',
            'version': 2,
            'vin': [{'prevout': {'generated': False,
                                 'height': 728240,
                                 'scriptPubKey': {'address': '17A16QmavnUfCW11DAApiJxp7ARnxN5pGX',
                                                  'asm': 'OP_DUP OP_HASH160 '
                                                         '43849383122ebb8a28268a89700c9f723663b5b8 '
                                                         'OP_EQUALVERIFY '
                                                         'OP_CHECKSIG',
                                                  'hex': '76a91443849383122ebb8a28268a89700c9f723663b5b888ac',
                                                  'type': 'pubkeyhash'},
                                 'value': 4.58794295},
                     'scriptSig': {
                         'asm': '304402202e369e5d812667262bef41a6e178b1ca359b75df34c78dff387d7f0a71d96110022006f1813f19f92bfaa6ff91b58299c400f43f4af86b2b47053a22925164f476c6[ALL] '
                                '047146f0e0fcb3139947cf0beb870fe251930ca10d4545793d31033e801b5219abf56c11a3cf3406ca590e4c14b0dab749d20862b3adc4709153c280c2a78be10c',
                         'hex': '47304402202e369e5d812667262bef41a6e178b1ca359b75df34c78dff387d7f0a71d96110022006f1813f19f92bfaa6ff91b58299c400f43f4af86b2b47053a22925164f476c60141047146f0e0fcb3139947cf0beb870fe251930ca10d4545793d31033e801b5219abf56c11a3cf3406ca590e4c14b0dab749d20862b3adc4709153c280c2a78be10c'},
                     'sequence': 4294967295,
                     'txid': 'bf83a49d1a280195cefd9e1a5aff7441ec55f65433adaa34d304be81f8ec49c6',
                     'vout': 2}],
            'vout': [{'n': 0,
                      'scriptPubKey': {'address': '3J4fKq3ehrD4kyvtB6ckiu7nXWNMGZ6Usb',
                                       'asm': 'OP_HASH160 '
                                              'b399f80ad77683162aa454dfce2d5699e25ca6d9 '
                                              'OP_EQUAL',
                                       'hex': 'a914b399f80ad77683162aa454dfce2d5699e25ca6d987',
                                       'type': 'scripthash'},
                      'value': 0.15553898},
                     {'n': 1,
                      'scriptPubKey': {'address': '3AYjDZsEc4Ax59oBgda2nm2TJH7igfD2m1',
                                       'asm': 'OP_HASH160 '
                                              '6127dbc5bfae6f1273cfea6b1c4904d22593e58c '
                                              'OP_EQUAL',
                                       'hex': 'a9146127dbc5bfae6f1273cfea6b1c4904d22593e58c87',
                                       'type': 'scripthash'},
                      'value': 2.5},
                     {'n': 2,
                      'scriptPubKey': {'address': '17A16QmavnUfCW11DAApiJxp7ARnxN5pGX',
                                       'asm': 'OP_DUP OP_HASH160 '
                                              '43849383122ebb8a28268a89700c9f723663b5b8 '
                                              'OP_EQUALVERIFY OP_CHECKSIG',
                                       'hex': '76a91443849383122ebb8a28268a89700c9f723663b5b888ac',
                                       'type': 'pubkeyhash'},
                      'value': 1.93140397}],
            'vsize': 287,
            'weight': 1148},
           {'fee': 0.0004775,
            'hash': '70460f368b1c810db0aab46f22a7bd9c80f12f5bbf7b49ded06147ff9033e7bb',
            'hex': '01000000000101c92305ebdded84025d1d26a4df70037756d2ae2c0a2b425582ac98d2156933ad0100000000ffffffff022c730b000000000017a914b66113495108d61575780b4b7db7b059e531a198877c653e0400000000220020e0bac0756d13ecdd31e369cd3e10db10478182894c06672b7a87704eec3962d004004830450221009e52cc32dc3d1fc556d7ca9d33f56cd1174004fba5a245adb605835957c2c13802200c8c2287295b369675ba52ed9485623acd3c083928c965915765c36590f309cf01473044022030348130431e3b428bee932a5f846fb742bee1ede6c325b9285cbd5b93b94f8702205f9bfa7bfab97a83b42e8f2d64225e76f00256d4f78f4a8fc78268f56a4d1b7801695221030adbb5819af5b4cc9e6006850ee851f573501b170b57fc29f81eac8fac3b90982103032bcc8589a79cfa940a63f11a5ae6cc403118edbc0e600275d4c785a8b921242102f77291e5682429751f35e55c089d4ac7c93f5713d1c035b69bf3c8f582d7de7a53aeb11c0b00',
            'locktime': 728241,
            'size': 381,
            'txid': '089d0cbaead4f2d4c3840d7702c8889ccb6660e88194161f8797d5becab98610',
            'version': 1,
            'vin': [{'prevout': {'generated': False,
                                 'height': 728239,
                                 'scriptPubKey': {
                                     'address': 'bc1qdav5auz84arnumz4kcfnfmt4jsww7efxtyyqectdeunmgvhs597shdt96c',
                                     'asm': '0 '
                                            '6f594ef047af473e6c55b61334ed75941cef652659080ce16dcf27b432f0a17d',
                                     'hex': '00206f594ef047af473e6c55b61334ed75941cef652659080ce16dcf27b432f0a17d',
                                     'type': 'witness_v0_scripthash'},
                                 'value': 0.71996206},
                     'scriptSig': {'asm': '', 'hex': ''},
                     'sequence': 4294967295,
                     'txid': 'ad336915d298ac8255422b0a2caed256770370dfa4261d5d0284edddeb0523c9',
                     'txinwitness': ['',
                                     '30450221009e52cc32dc3d1fc556d7ca9d33f56cd1174004fba5a245adb605835957c2c13802200c8c2287295b369675ba52ed9485623acd3c083928c965915765c36590f309cf01',
                                     '3044022030348130431e3b428bee932a5f846fb742bee1ede6c325b9285cbd5b93b94f8702205f9bfa7bfab97a83b42e8f2d64225e76f00256d4f78f4a8fc78268f56a4d1b7801',
                                     '5221030adbb5819af5b4cc9e6006850ee851f573501b170b57fc29f81eac8fac3b90982103032bcc8589a79cfa940a63f11a5ae6cc403118edbc0e600275d4c785a8b921242102f77291e5682429751f35e55c089d4ac7c93f5713d1c035b69bf3c8f582d7de7a53ae'],
                     'vout': 1}],
            'vout': [{'n': 0,
                      'scriptPubKey': {'address': '3JKMCNPXvfewye4Uxk6sJZGxK74tSmL9ty',
                                       'asm': 'OP_HASH160 '
                                              'b66113495108d61575780b4b7db7b059e531a198 '
                                              'OP_EQUAL',
                                       'hex': 'a914b66113495108d61575780b4b7db7b059e531a19887',
                                       'type': 'scripthash'},
                      'value': 0.0075038},
                     {'n': 1,
                      'scriptPubKey': {'address': 'bc1quzavqatdz0kd6v0rd8xnuyxmzprcrq5ffsrxw2m6sacyampevtgqj0es8z',
                                       'asm': '0 '
                                              'e0bac0756d13ecdd31e369cd3e10db10478182894c06672b7a87704eec3962d0',
                                       'hex': '0020e0bac0756d13ecdd31e369cd3e10db10478182894c06672b7a87704eec3962d0',
                                       'type': 'witness_v0_scripthash'},
                      'value': 0.71198076}],
            'vsize': 190,
            'weight': 759}],
    'version': 1073676292,
    'versionHex': '3fff0004',
    'weight': 3993021}

TRANSACTION_REST_JSON = {
    'hash': '3fbb076e0ecac6c02327037d2e002c54b9c2918b2002e3e1c54191b0a742a05d',
    'hex': '0100000000010137392cde53ad654112e31a47889725ab8510bd1d901585bdd5f54b7bc3c325a50100000000ffffffff020000000000000000536a4c50002e9d9800027e552213ed67f0f6e8a9a0654b53ad106c1a838aaaea2c7235c9c413d6b308dde15fe9c0e3cb88f4bf659716becc623b08e8051ac8808000452e4bd032070d410359211d83f70808b45f69bb0000000000001600148ac98711c0a8b8f6a432069a73232fa43e024873024730440220761702303cd71a42782a689ca71d14049aab090cf6417c5801d05723a09586c4022079c63b8ee24e9e36b507b51d60428c4a75e097b9c16e2c09e13f1572da728172012102178a1fa7b2a3e6c87285b4ccd5b53720c16f118274bb0ec966ed06339cf21fdd00000000',
    'locktime': 0,
    'size': 283,
    'txid': '3fb680628ea4e2f8a5bbe80602915c709759069275c1b72d63b57845454bbef1',
    'version': 1,
    'vin': [{'scriptSig': {'asm': '', 'hex': ''},
             'sequence': 4294967295,
             'txid': 'a525c3c37b4bf5d5bd8515901dbd1085ab259788471ae3124165ad53de2c3937',
             'txinwitness': [
                 '30440220761702303cd71a42782a689ca71d14049aab090cf6417c5801d05723a09586c4022079c63b8ee24e9e36b507b51d60428c4a75e097b9c16e2c09e13f1572da72817201',
                 '02178a1fa7b2a3e6c87285b4ccd5b53720c16f118274bb0ec966ed06339cf21fdd'],
             'vout': 1}],
    'vout': [{'n': 0,
              'scriptPubKey': {'asm': 'OP_RETURN '
                                      '002e9d9800027e552213ed67f0f6e8a9a0654b53ad106c1a838aaaea2c7235c9c413d6b308dde15fe9c0e3cb88f4bf659716becc623b08e8051ac8808000452e4bd032070d410359211d83f70808b45f',
                               'hex': '6a4c50002e9d9800027e552213ed67f0f6e8a9a0654b53ad106c1a838aaaea2c7235c9c413d6b308dde15fe9c0e3cb88f4bf659716becc623b08e8051ac8808000452e4bd032070d410359211d83f70808b45f',
                               'type': 'nulldata'},
              'value': 0.0},
             {'n': 1,
              'scriptPubKey': {'address': 'bc1q3tycwywq4zu0dfpjq6d8xge05slqyjrn2p58hy',
                               'asm': '0 8ac98711c0a8b8f6a432069a73232fa43e024873',
                               'hex': '00148ac98711c0a8b8f6a432069a73232fa43e024873',
                               'type': 'witness_v0_keyhash'},
              'value': 0.00047977}],
    'vsize': 202,
    'weight': 805,
}

CHAIN_INFO_REST_JSON = {
    'automatic_pruning': True,
    'bestblockhash': '0000000000000000000388e3b5bc8bdb4562e7e9417314da968f971778a85fbd',
    'blocks': 728823,
    'chain': 'main',
    'chainwork': '00000000000000000000000000000000000000002ad3d16e509a93c7ddbfcfb0',
    'difficulty': 27452707696466.39,
    'headers': 728823,
    'initialblockdownload': False,
    'mediantime': 1648134645,
    'prune_target_size': 14680064000,
    'pruned': True,
    'pruneheight': 717877,
    'size_on_disk': 14623891331,
    'softforks': {'bip34': {'active': True, 'height': 227931, 'type': 'buried'},
                  'bip65': {'active': True, 'height': 388381, 'type': 'buried'},
                  'bip66': {'active': True, 'height': 363725, 'type': 'buried'},
                  'csv': {'active': True, 'height': 419328, 'type': 'buried'},
                  'segwit': {'active': True, 'height': 481824, 'type': 'buried'},
                  'taproot': {'active': True,
                              'bip9': {'min_activation_height': 709632,
                                       'since': 709632,
                                       'start_time': 1619222400,
                                       'status': 'active',
                                       'timeout': 1628640000},
                              'height': 709632,
                              'type': 'bip9'}},
    'time': 1648137348,
    'verificationprogress': 0.999999558873212,
}
