"""
Data useful for tests
"""

COINBASE_TX = {'txid': '86974d057467170798c3bcb5bbaed8d3f36abd5bda5fac668ca2b9163c4cfb5f',
               'hash': 'e50d7a9024d709a842329b00e0c6fa4f33369822a7fd1d4a2c6fb1c25f5268d8',
               'version': 1,
               'size': 351,
               'vsize': 324,
               'weight': 1296,
               'locktime': 0,
               'vin': [{
                   'coinbase': '03b9ca0a1b4d696e656420627920416e74506f6f6c37323492000101934ee00efabe6d6df8db8ceaac3c62a305bb2c6b8af70c2f14fc6ca8b607c0c8d574c363929a10620200000000000000687300001b130000',
                   'txinwitness': ['0000000000000000000000000000000000000000000000000000000000000000'],
                   'sequence': 4294967295}],
               'vout': [{'value': 6.36824725,
                         'n': 0,
                         'scriptPubKey': {
                             'asm': 'OP_DUP OP_HASH160 11dbe48cc6b617f9c6adaf4d9ed5f625b1c7cb59 OP_EQUALVERIFY OP_CHECKSIG',
                             'hex': '76a91411dbe48cc6b617f9c6adaf4d9ed5f625b1c7cb5988ac',
                             'address': '12dRugNcdxK39288NjcDV4GX7rMsKCGn6B',
                             'type': 'pubkeyhash'}},
                        {'value': 0.0,
                         'n': 1,
                         'scriptPubKey': {
                             'asm': 'OP_RETURN aa21a9ed13265fb4d14dae142677807461eeb33da0b8fa9840329923b7e5affd89be5cc1',
                             'hex': '6a24aa21a9ed13265fb4d14dae142677807461eeb33da0b8fa9840329923b7e5affd89be5cc1',
                             'type': 'nulldata'}},
                        {'value': 0.0,
                         'n': 2,
                         'scriptPubKey': {
                             'asm': 'OP_RETURN b9e11b6d6aecd70cf7322974adf7bbba3608aadec4d2ba974443f896a6f628f882c64785',
                             'hex': '6a24b9e11b6d6aecd70cf7322974adf7bbba3608aadec4d2ba974443f896a6f628f882c64785',
                             'type': 'nulldata'}},
                        {'value': 0.0,
                         'n': 3,
                         'scriptPubKey': {
                             'asm': 'OP_RETURN 52534b424c4f434b3afc2b75df8c8e2f23d373c0e451615c67c46935f701aaac82bab17528003a141d',
                             'hex': '6a2952534b424c4f434b3afc2b75df8c8e2f23d373c0e451615c67c46935f701aaac82bab17528003a141d',
                             'type': 'nulldata'}}],
               'hex': '010000000001010000000000000000000000000000000000000000000000000000000000000000ffffffff5403b9ca0a1b4d696e656420627920416e74506f6f6c37323492000101934ee00efabe6d6df8db8ceaac3c62a305bb2c6b8af70c2f14fc6ca8b607c0c8d574c363929a10620200000000000000687300001b130000ffffffff04952cf525000000001976a91411dbe48cc6b617f9c6adaf4d9ed5f625b1c7cb5988ac0000000000000000266a24aa21a9ed13265fb4d14dae142677807461eeb33da0b8fa9840329923b7e5affd89be5cc10000000000000000266a24b9e11b6d6aecd70cf7322974adf7bbba3608aadec4d2ba974443f896a6f628f882c6478500000000000000002b6a2952534b424c4f434b3afc2b75df8c8e2f23d373c0e451615c67c46935f701aaac82bab17528003a141d0120000000000000000000000000000000000000000000000000000000000000000000000000'
               }

SIMPLE_TX = {'txid': '664db4244663bcf32cada759279a840c6ae525946a74cbd47a25ef07a983c22b',
             'hash': '83f9f9929c8bc67029aa7eb9d41580c76f71e01963aaedb12064100bb25a7f79',
             'version': 1,
             'size': 381,
             'vsize': 192,
             'weight': 765,
             'locktime': 0,
             'vin': [{'txid': 'afb2085c42a82288e0220aad37c90c35e011b97a63416c0a0dda98f2743dfeaa',
                      'vout': 2,
                      'scriptSig': {'asm': '', 'hex': ''},
                      'txinwitness': ['',
                                      '304402204b46e4c826098ce2b23ce7c062c5b1037633b39cfcb8dafd0e2c3aa0f56c5ca502206451b94487e421c99956b65dfd6f7d35dbf7ec34bd697c57aa1a8bdc48f2c43e01',
                                      '30430220425c156da1c7ab2250908fb6e8a597768da5304452ff06ae250c1c8d85871bc0021f6b7d4b922c48d122ac726d13b13ea17581abdbeb037a57c562050cf9f843e101',
                                      '52210375e00eb72e29da82b89367947f29ef34afb75e8654f6ea368e0acdfd92976b7c2103a1b26313f430c4b15bb1fdce663207659d8cac749a0e53d70eff01874496feff2103c96d495bfdd5ba4145e3e046fee45e84a8a48ad05bd8dbb395c011a32cf9f88053ae'],
                      'prevout': {'generated': False,
                                  'height': 707256,
                                  'value': 0.05071416,
                                  'scriptPubKey': {
                                      'asm': '0 701a8d401c84fb13e6baf169d59684e17abd9fa216c8cc5b9fc63d622ff8c58d',
                                      'hex': '0020701a8d401c84fb13e6baf169d59684e17abd9fa216c8cc5b9fc63d622ff8c58d',
                                      'address': 'bc1qwqdg6squsna38e46795at95yu9atm8azzmyvckulcc7kytlcckxswvvzej',
                                      'type': 'witness_v0_scripthash'}},
                      'sequence': 4294967295}],
             'vout': [{'value': 0.02795665,
                       'n': 0,
                       'scriptPubKey': {
                           'asm': 'OP_DUP OP_HASH160 53855df7f224a1c2bcc1ac69a4e0d2894a1b21df OP_EQUALVERIFY OP_CHECKSIG',
                           'hex': '76a91453855df7f224a1c2bcc1ac69a4e0d2894a1b21df88ac',
                           'address': '18ccrRpt4Va9VwD9ttaZT3LVN9wcugfp6h',
                           'type': 'pubkeyhash'}},
                      {'value': 0.02185751,
                       'n': 1,
                       'scriptPubKey': {'asm': '0 701a8d401c84fb13e6baf169d59684e17abd9fa216c8cc5b9fc63d622ff8c58d',
                                        'hex': '0020701a8d401c84fb13e6baf169d59684e17abd9fa216c8cc5b9fc63d622ff8c58d',
                                        'address': 'bc1qwqdg6squsna38e46795at95yu9atm8azzmyvckulcc7kytlcckxswvvzej',
                                        'type': 'witness_v0_scripthash'}}],
             'fee': 0.0009,
             'hex': '01000000000101aafe3d74f298da0d0a6c41637ab911e0350cc937ad0a22e08822a8425c08b2af0200000000ffffffff0291a82a00000000001976a91453855df7f224a1c2bcc1ac69a4e0d2894a1b21df88ac175a210000000000220020701a8d401c84fb13e6baf169d59684e17abd9fa216c8cc5b9fc63d622ff8c58d040047304402204b46e4c826098ce2b23ce7c062c5b1037633b39cfcb8dafd0e2c3aa0f56c5ca502206451b94487e421c99956b65dfd6f7d35dbf7ec34bd697c57aa1a8bdc48f2c43e014630430220425c156da1c7ab2250908fb6e8a597768da5304452ff06ae250c1c8d85871bc0021f6b7d4b922c48d122ac726d13b13ea17581abdbeb037a57c562050cf9f843e1016952210375e00eb72e29da82b89367947f29ef34afb75e8654f6ea368e0acdfd92976b7c2103a1b26313f430c4b15bb1fdce663207659d8cac749a0e53d70eff01874496feff2103c96d495bfdd5ba4145e3e046fee45e84a8a48ad05bd8dbb395c011a32cf9f88053ae00000000'}
