from typing import Dict, Any

simple_transaction: Dict[str, Any] = {'txid': 'dde13831553ccfc48fb6ef3237ebea81a87ab67de53ed5d6476d44d61a6d37cc',
                                      'hash': '9a47c3bee0e4327b7587918a614ecb7c59c5882de005cbf718c3611ced26357d',
                                      'version': 1,
                                      'size': 249,
                                      'vsize': 168,
                                      'weight': 669,
                                      'locktime': 0,
                                      'vin': [
                                          {'txid': '51380e6d281e942eb2fd7109cd6a72799a9640e17f24034d96c4a9f4704cd29b',
                                           'vout': 1,
                                           'scriptSig': {'asm': '001464e7078aed99ff42d85336ab14bbabd4b91f62a5',
                                                         'hex': '16001464e7078aed99ff42d85336ab14bbabd4b91f62a5'},
                                           'txinwitness': [
                                               '30440220135bb121e625901984648652d852c11c1bb403c5dcdae472e98bf718684b0e98022033776f6c17f0446bd464bcb885916e31540837ff284eb89e1efdd95d67cefeea01',
                                               '03ac9e9b95ac474cc2668bfa9202b6d7a30758330cb2ba1ef143172fbfd8ba48e1'],
                                           'prevout': {'height': 648563,
                                                       'value': 2.17370429,
                                                       'generated': False,
                                                       'scriptPubKey': {
                                                           'asm': 'OP_HASH160 e1a4aced802d595e6e13a4dbba46d0cf882159bc OP_EQUAL',
                                                           'desc': 'addr(3NG7EZRcHpmaGzJkopBUbiTqSvDfJmX4eo)#r554huv5',
                                                           'hex': 'a914e1a4aced802d595e6e13a4dbba46d0cf882159bc87',
                                                           'reqSigs': 1,
                                                           'type': 'scripthash',
                                                           'addresses': ['3NG7EZRcHpmaGzJkopBUbiTqSvDfJmX4eo']}},
                                           'sequence': 16777215}],
                                      'vout': [{'value': 0.00922158,
                                                'n': 0,
                                                'scriptPubKey': {
                                                    'asm': 'OP_DUP OP_HASH160 b519cdc70f643dbf664916a4eadb99f9de324944 OP_EQUALVERIFY OP_CHECKSIG',
                                                    'desc': 'addr(1HWaDbvKnK2qwsRDmHMVg6yQA9hgb2ALNH)#ps4lanaf',
                                                    'hex': '76a914b519cdc70f643dbf664916a4eadb99f9de32494488ac',
                                                    'reqSigs': 1,
                                                    'type': 'pubkeyhash',
                                                    'addresses': ['1HWaDbvKnK2qwsRDmHMVg6yQA9hgb2ALNH']}},
                                               {'value': 2.16317735,
                                                'n': 1,
                                                'scriptPubKey': {
                                                    'asm': 'OP_HASH160 aa8efddf111b79a720151fa2b7740562029e0e20 OP_EQUAL',
                                                    'desc': 'addr(3HEr6PeqQaeqi2w4qTriydAqJ2aLQ2Y4yz)#klhvt55g',
                                                    'hex': 'a914aa8efddf111b79a720151fa2b7740562029e0e2087',
                                                    'reqSigs': 1,
                                                    'type': 'scripthash',
                                                    'addresses': ['3HEr6PeqQaeqi2w4qTriydAqJ2aLQ2Y4yz']}}],
                                      'fee': 0.00130536,
                                      'hex': '010000000001019bd24c70f4a9c4964d03247fe140969a79726acd0971fdb22e941e286d0e3851010000001716001464e7078aed99ff42d85336ab14bbabd4b91f62a5ffffff00022e120e00000000001976a914b519cdc70f643dbf664916a4eadb99f9de32494488ac27bfe40c0000000017a914aa8efddf111b79a720151fa2b7740562029e0e2087024730440220135bb121e625901984648652d852c11c1bb403c5dcdae472e98bf718684b0e98022033776f6c17f0446bd464bcb885916e31540837ff284eb89e1efdd95d67cefeea012103ac9e9b95ac474cc2668bfa9202b6d7a30758330cb2ba1ef143172fbfd8ba48e100000000'}

coinbase_transaction: Dict[str, Any] = {'txid': 'aefaf56793980778f4ed2d5d1900a4e99a9029966b0897ae35ad3d6c6a6d1e5d',
                                        'hash': 'deaf80587bfaa613d3431d537ce024844a426e0cbad835c3b22ab4a689611447',
                                        'version': 1,
                                        'size': 362,
                                        'vsize': 335,
                                        'weight': 1340,
                                        'locktime': 2192709790,
                                        'vin': [{
                                            'coinbase': '0347e609046998635f2f706f6f6c696e2e636f6d2ffabe6d6d092f11a0c31abafdc2ecf84f0aedd3745a6ce7e38d139dabc350f0822caa6500010000000000000013d3f5221eab97eaca195f9135a260ca118042487c00d10e000000000000',
                                            'sequence': 4294967295}],
                                        'vout': [{'value': 7.07505391,
                                                  'n': 0,
                                                  'scriptPubKey': {
                                                      'asm': 'OP_DUP OP_HASH160 0c0271699741cd1211149dd12ad126a901e156da OP_EQUALVERIFY OP_CHECKSIG',
                                                      'desc': 'addr(126W33f3fJaVzPT57pVFBZZt7PUCTHnH7J)#ngaq07lg',
                                                      'hex': '76a9140c0271699741cd1211149dd12ad126a901e156da88ac',
                                                      'reqSigs': 1,
                                                      'type': 'pubkeyhash',
                                                      'addresses': ['126W33f3fJaVzPT57pVFBZZt7PUCTHnH7J']}},
                                                 {'value': 0.0,
                                                  'n': 1,
                                                  'scriptPubKey': {
                                                      'asm': 'OP_RETURN b9e11b6ddb0c62141cbe45c5b522078272bd84299aef6d2e8d242ab191279515f5403b42',
                                                      'desc': 'raw(6a24b9e11b6ddb0c62141cbe45c5b522078272bd84299aef6d2e8d242ab191279515f5403b42)#ndae0wwx',
                                                      'hex': '6a24b9e11b6ddb0c62141cbe45c5b522078272bd84299aef6d2e8d242ab191279515f5403b42',
                                                      'type': 'nulldata'}},
                                                 {'value': 0.0,
                                                  'n': 2,
                                                  'scriptPubKey': {
                                                      'asm': 'OP_RETURN aa21a9ed78fcc704c9d050d9268f2b795a524b1abbeb788847a9034eee265859c15cb7d5',
                                                      'desc': 'raw(6a24aa21a9ed78fcc704c9d050d9268f2b795a524b1abbeb788847a9034eee265859c15cb7d5)#4pfueymj',
                                                      'hex': '6a24aa21a9ed78fcc704c9d050d9268f2b795a524b1abbeb788847a9034eee265859c15cb7d5',
                                                      'type': 'nulldata'}},
                                                 {'value': 0.0,
                                                  'n': 3,
                                                  'scriptPubKey': {
                                                      'asm': 'OP_RETURN 52534b424c4f434b3ad6325604cdf5ccbe90c81da877c485eb6062bf0449ebed954d378333002953c9',
                                                      'desc': 'raw(6a2952534b424c4f434b3ad6325604cdf5ccbe90c81da877c485eb6062bf0449ebed954d378333002953c9)#yn3cltdp',
                                                      'hex': '6a2952534b424c4f434b3ad6325604cdf5ccbe90c81da877c485eb6062bf0449ebed954d378333002953c9',
                                                      'type': 'nulldata'}}],
                                        'hex': '010000000001010000000000000000000000000000000000000000000000000000000000000000ffffffff5f0347e609046998635f2f706f6f6c696e2e636f6d2ffabe6d6d092f11a0c31abafdc2ecf84f0aedd3745a6ce7e38d139dabc350f0822caa6500010000000000000013d3f5221eab97eaca195f9135a260ca118042487c00d10e000000000000ffffffff04efac2b2a000000001976a9140c0271699741cd1211149dd12ad126a901e156da88ac0000000000000000266a24b9e11b6ddb0c62141cbe45c5b522078272bd84299aef6d2e8d242ab191279515f5403b420000000000000000266a24aa21a9ed78fcc704c9d050d9268f2b795a524b1abbeb788847a9034eee265859c15cb7d500000000000000002b6a2952534b424c4f434b3ad6325604cdf5ccbe90c81da877c485eb6062bf0449ebed954d378333002953c9012000000000000000000000000000000000000000000000000000000000000000009e18b282'}

same_output_type_tx: Dict[str, Any] = {'txid': '2fbcc3d8a972c637fd94c92b283755960430164d3b492f93f1174f7b8aa71d13',
                                       'hash': '2fbcc3d8a972c637fd94c92b283755960430164d3b492f93f1174f7b8aa71d13',
                                       'version': 1,
                                       'size': 367,
                                       'vsize': 367,
                                       'weight': 1468,
                                       'locktime': 0,
                                       'vin': [
                                           {'txid': '0eed4aca302e19b6f824922be6d5aadf77758a5c786d877d1ee22d60d0ccf0e2',
                                            'vout': 1,
                                            'scriptSig': {
                                                'asm': '0 304402201dc09737de3204d8bc577cbc0a6956bf696b7ebf2a30fe256076e2438f674886022033ad4ed4a86f566d7340cd56179a2c4fd0f13d56a2c352973c4dc02762bc33ca[ALL] 3044022055c28eceabaaf4a2284ddcc254577e62e99945835ca3f0815f7dac18a1b81862022045356be8ccb1472b192aa919b30ed556d988829986a2ab4c0aac69218296b2c5[ALL] 52210234d132bc9458cf461a6619af47f815bf0f875937956e388cac97ee58145457132102b67df1461ddd5448acc4bd24d24cdb5e845f69ce33b7df8d9534f3cebe3f63412103cf5f3912120bacbc731417937138ac92cfe9c93dd53e5b4eeb115b42da62009453ae',
                                                'hex': '0047304402201dc09737de3204d8bc577cbc0a6956bf696b7ebf2a30fe256076e2438f674886022033ad4ed4a86f566d7340cd56179a2c4fd0f13d56a2c352973c4dc02762bc33ca01473044022055c28eceabaaf4a2284ddcc254577e62e99945835ca3f0815f7dac18a1b81862022045356be8ccb1472b192aa919b30ed556d988829986a2ab4c0aac69218296b2c5014c6952210234d132bc9458cf461a6619af47f815bf0f875937956e388cac97ee58145457132102b67df1461ddd5448acc4bd24d24cdb5e845f69ce33b7df8d9534f3cebe3f63412103cf5f3912120bacbc731417937138ac92cfe9c93dd53e5b4eeb115b42da62009453ae'},
                                            'prevout': {'height': 648774,
                                                        'value': 298.99779509,
                                                        'generated': False,
                                                        'scriptPubKey': {
                                                            'asm': 'OP_HASH160 d2ed0a8e19323da5c563a9ff28599b7e4c9c054d OP_EQUAL',
                                                            'desc': 'addr(3LvHnjxy3LTaGWJmpvEzQ9FTZ61hWwNSUA)#erf7y9s9',
                                                            'hex': 'a914d2ed0a8e19323da5c563a9ff28599b7e4c9c054d87',
                                                            'reqSigs': 1,
                                                            'type': 'scripthash',
                                                            'addresses': ['3LvHnjxy3LTaGWJmpvEzQ9FTZ61hWwNSUA']}},
                                            'sequence': 4294967295}],
                                       'vout': [{'value': 0.001,
                                                 'n': 0,
                                                 'scriptPubKey': {
                                                     'asm': 'OP_HASH160 9cce5ff3d32bcb60b82468204b4610f5f5ed6a01 OP_EQUAL',
                                                     'desc': 'addr(3Fz8ZeEYb4kpBMqAwviakpHR8ZnZYybntt)#58c6mmel',
                                                     'hex': 'a9149cce5ff3d32bcb60b82468204b4610f5f5ed6a0187',
                                                     'reqSigs': 1,
                                                     'type': 'scripthash',
                                                     'addresses': ['3Fz8ZeEYb4kpBMqAwviakpHR8ZnZYybntt']}},
                                                {'value': 298.99504326,
                                                 'n': 1,
                                                 'scriptPubKey': {
                                                     'asm': 'OP_HASH160 d2c746e66ae685f7a990f527fa924a5e2f74ec32 OP_EQUAL',
                                                     'desc': 'addr(3LuWYqJV7ZNK5dKHMifvqYhgGCnDfrSFhU)#mwt0fpr2',
                                                     'hex': 'a914d2c746e66ae685f7a990f527fa924a5e2f74ec3287',
                                                     'reqSigs': 1,
                                                     'type': 'scripthash',
                                                     'addresses': ['3LuWYqJV7ZNK5dKHMifvqYhgGCnDfrSFhU']}}],
                                       'fee': 0.00175183,
                                       'hex': '0100000001e2f0ccd0602de21e7d876d785c8a7577dfaad5e62b9224f8b6192e30ca4aed0e01000000fc0047304402201dc09737de3204d8bc577cbc0a6956bf696b7ebf2a30fe256076e2438f674886022033ad4ed4a86f566d7340cd56179a2c4fd0f13d56a2c352973c4dc02762bc33ca01473044022055c28eceabaaf4a2284ddcc254577e62e99945835ca3f0815f7dac18a1b81862022045356be8ccb1472b192aa919b30ed556d988829986a2ab4c0aac69218296b2c5014c6952210234d132bc9458cf461a6619af47f815bf0f875937956e388cac97ee58145457132102b67df1461ddd5448acc4bd24d24cdb5e845f69ce33b7df8d9534f3cebe3f63412103cf5f3912120bacbc731417937138ac92cfe9c93dd53e5b4eeb115b42da62009453aeffffffff02a08601000000000017a9149cce5ff3d32bcb60b82468204b4610f5f5ed6a0187c63a26f60600000017a914d2c746e66ae685f7a990f527fa924a5e2f74ec328700000000'}

joinmarket_transaction: Dict = {'fee': 0.00156384,
                                'hash': 'c37be7c2ef2ddf2d5f2011d50cca5085d2212bc42c1ec1f22a68cd828d69021b',
                                'hex': '0200000000010b3c4b408c3b195495d2283393efaa49dc6b361ccbf706ebdc2743377efeff9c570400000000feffffff58551f0330013738f1606875599aa02c8cc2d7b6991ed330eaf9293b4ba7f6190b00000000feffffff8b3e344e74c20b4c69dcbe1466bebcf5a9fb22a40541fba18b3ff220a5ebd8f80000000000feffffff3d7757d635644f087d65529b684be4f3b31995920890b0c3da97c5b5b4e5dc000500000000feffffffb421d33763198a37aa4f5df851f468d12f73a4f3801d48aed5e642058fa68add1100000000feffffffc050587a997d0b7d8bc2bdf524795c10d391eab0391e3cf60f5e5668d008d02f0000000000feffffff1eb036f104897730b0eb505cb8be7d39ce7332c4ffdf60c013fdc3ee8bcde74f0500000000feffffffb421d33763198a37aa4f5df851f468d12f73a4f3801d48aed5e642058fa68add1300000000feffffff8f0c7a7167e4120a51d934bffc5f8d45735903d53003609033f82bdce319802d0000000000feffffff239a97bb7eab7cab6200cc88a550c3e6d0361db18047b0c4910a9dce488c7a2e0700000000feffffff2d0ca9cc2584866ef69d94e0ab9d364302854f3fc381aca1b0c7325accf58f4b0500000000feffffff0d08cf3e000000000016001494facdfbe46d42557bfbcf01da816dffd2077e8b08cf3e00000000001600141671ce025a845063bd26a3d0ee2518bb108cb2d808cf3e0000000000160014fbbe7700d9c35cf39b042458bccf3119149ea3a05c649b00000000001600145ecc566bcb4a2c970c6d09282382f358bd6ca38b08cf3e00000000001600146ed277aa5eb1f19b7e14e1cf78a34033a5c8a1c908cf3e0000000000160014d49c1be39889afa115043d3aa1bcc9e037a604d0acb35e0000000000160014d4236ea0a90008f1126052b7ad4406e7d47fb0ee16000900000000001600147015b0c8c96df880e46fc488f57be4354c6f01d1c40844000000000016001407d4c1103575a5d5af063a9447abd3902534215a03e100000000000016001479983d0729be4edffe699472be17ee460e15bce808cf3e000000000016001441ee20567a903e6901b21059f8173caa8df9b05f08cf3e000000000016001419e9f90598a02a844ed323263976c8017544a4c606668901000000001600142fc32a9b03ed6097b8352bec6810f0d094ce3e19024830450221008a151ea9e90efb2c18f7a58d0f89dcc50d1c204dd0c5ea9acfbf9f0247b0ee66022044218b6231d2c3e4a1692c28d70deb7c68470cf450bbde6a85aee7d718f8042a01210226bce01df4ef884d7612ebbb8cb7e4986c6c5bee790a763b0534de360a1f4f9702483045022100e1f9e07c2e6d5fa2b40c8ab60c26cd436f793b561787a322b0fca8b4fe2bd32402206991819f226df806040504ec32182ab2de3d3c7427a370225c84f64423ed7291012102ffea1931455da3ad1bbe9199a1ea6b9c29a1bae23c824dfe041d2bcc93e5e4cc02483045022100c015da43bc7806b5efe744252d82cc850ef477158ff83e447392a8f006af94dd02203a32fee63784751894723f5f176f94032627cd65005d66511f4a9fc0145762770121038bfb55a2777947584ff7f9c613f915a22d2391c946e5f462aa27274b1929767702483045022100c1c85c1a3e76570ab6360d8d6fd3dd5b1d636ffb6a1d17b13360cdf7c61ae5160220607d2ee65a2be6a952794c2fe80b5ef1c0ed93e8d46d3df18af05b7741b3fc500121020eee76672ad08fe3bfca0c5475c2f42a6214cfc81bf5c320e1b8fdbe3d3bd4d802483045022100fd2e17f0139d16872293a7bd5d1d76dba1c0ffb24b25d4f7d198cc251d79983e02201a2433fb0825221daf09f4db0b03591b00516d4fc480184f697c515511f780ed01210313c44990a9110acac74d66c238cec3912978b15980cb86fb90057973f685366e02483045022100f4401971ca772731d05aeed8baf591212fea6cefe271610c68cc899a2e27d8ae02203cc3d5519768c25d238a01bca1c9ff2872bb917b6a7d1e1e66eb93f20af93f96012103fa953904bc49cb2b53653bd90f0981bb986047a4bd274065ca2e37a1e691f3cc0247304402206b067275c9f1e82ce0c05edf5a668acb3e72caf956375c08751ccb71b6801b430220436ba9fce1d2024e1e8da536641b670805218c11ec7d2bad1b9b228d06adcacd012103217f8ad1e02ffd04ceabf1923786faa1fcc9756e1c3d39c64f03595d607e7a1702483045022100eb14e6e3ba5ff512c58e231d92591956313b6b10a53782a07dcebd76248f550202204d842e8310fa681e48170b3cbf810a76d17e33487e6177ff41f74543492222c9012103ca4d5809811eeaf9cce377db2bd7b17016a4eb59236d495589f415faae5fb2a602483045022100b3d09be0f1b725c5593ceec7d82a53321fa406dcd30e4a3c9c0d0ed2f4a3a6e0022077bd4b4650fb2115a92095613fda4a3c35520cbd031656f363bbac2dc550ecbe0121020607d72da6c516b4f63ac8d2ef35658101a9c0e1da8147af1dbfa9f78616b92f02473044022036a2bd25057c992d03e32735dedc1f3996c3f3b852cf42671c070960e7634f3602203cfacaad32df6d9886fdf82ff14e266070da52b2cc76d287a77db28d30e0eac70121021b2a5ab26cecce93aa04071f450c42b8c75b1f5b44ed975f60c0e19d42ee8d320247304402206042e6bc6f40a71bb0a63aa84b9a39c18553fa6d783f5d93af08c6fc0242868e0220232b4d081b6f8f87f0207a09ff66431da6deb86d38d0b5cfaa6cdf0834e5673f0121020b7998622b9d1132fa54123c316987c37fd6e22b5dde7d82bf6ee1e2d05e07eac9490a00',
                                'locktime': 674249,
                                'size': 2051,
                                'txid': '9b04e5936fcc2a427429daaa6181c7b9bd76fe3a92ad158086cd9b0f355bd8a5',
                                'version': 2,
                                'vin': [{'prevout': {'generated': False,
                                                     'height': 673426,
                                                     'scriptPubKey': {
                                                         'addresses': ['bc1qtxltxm7yuyftpsxa3utvstems4vuqr4pyn60vh'],
                                                         'asm': '0 '
                                                                '59beb36fc4e112b0c0dd8f16c82f3b8559c00ea1',
                                                         'desc': 'addr(bc1qtxltxm7yuyftpsxa3utvstems4vuqr4pyn60vh)#r8927h5w',
                                                         'hex': '001459beb36fc4e112b0c0dd8f16c82f3b8559c00ea1',
                                                         'reqSigs': 1,
                                                         'type': 'witness_v0_keyhash'},
                                                     'value': 0.10322609},
                                         'scriptSig': {'asm': '', 'hex': ''},
                                         'sequence': 4294967294,
                                         'txid': '579cfffe7e374327dceb06f7cb1c366bdc49aaef933328d29554193b8c404b3c',
                                         'txinwitness': [
                                             '30450221008a151ea9e90efb2c18f7a58d0f89dcc50d1c204dd0c5ea9acfbf9f0247b0ee66022044218b6231d2c3e4a1692c28d70deb7c68470cf450bbde6a85aee7d718f8042a01',
                                             '0226bce01df4ef884d7612ebbb8cb7e4986c6c5bee790a763b0534de360a1f4f97'],
                                         'vout': 4},
                                        {'prevout': {'generated': False,
                                                     'height': 673887,
                                                     'scriptPubKey': {
                                                         'addresses': ['bc1qcewlz58jt22c6sc93npzqse089j4f6hay3vtm6'],
                                                         'asm': '0 '
                                                                'c65df150f25a958d43058cc220432f396554eafd',
                                                         'desc': 'addr(bc1qcewlz58jt22c6sc93npzqse089j4f6hay3vtm6)#txueyh8d',
                                                         'hex': '0014c65df150f25a958d43058cc220432f396554eafd',
                                                         'reqSigs': 1,
                                                         'type': 'witness_v0_keyhash'},
                                                     'value': 0.03490563},
                                         'scriptSig': {'asm': '', 'hex': ''},
                                         'sequence': 4294967294,
                                         'txid': '19f6a74b3b29f9ea30d31e99b6d7c28c2ca09a59756860f138370130031f5558',
                                         'txinwitness': [
                                             '3045022100e1f9e07c2e6d5fa2b40c8ab60c26cd436f793b561787a322b0fca8b4fe2bd32402206991819f226df806040504ec32182ab2de3d3c7427a370225c84f64423ed729101',
                                             '02ffea1931455da3ad1bbe9199a1ea6b9c29a1bae23c824dfe041d2bcc93e5e4cc'],
                                         'vout': 11},
                                        {'prevout': {'generated': False,
                                                     'height': 672943,
                                                     'scriptPubKey': {
                                                         'addresses': ['bc1q35mz4vm2vyhzmwxz402su0th4qnk5acjyjlasp'],
                                                         'asm': '0 '
                                                                '8d362ab36a612e2db8c2abd50e3d77a8276a7712',
                                                         'desc': 'addr(bc1q35mz4vm2vyhzmwxz402su0th4qnk5acjyjlasp)#ed3s58v8',
                                                         'hex': '00148d362ab36a612e2db8c2abd50e3d77a8276a7712',
                                                         'reqSigs': 1,
                                                         'type': 'witness_v0_keyhash'},
                                                     'value': 0.00726628},
                                         'scriptSig': {'asm': '', 'hex': ''},
                                         'sequence': 4294967294,
                                         'txid': 'f8d8eba520f23f8ba1fb4105a422fba9f5bcbe6614bedc694c0bc2744e343e8b',
                                         'txinwitness': [
                                             '3045022100c015da43bc7806b5efe744252d82cc850ef477158ff83e447392a8f006af94dd02203a32fee63784751894723f5f176f94032627cd65005d66511f4a9fc01457627701',
                                             '038bfb55a2777947584ff7f9c613f915a22d2391c946e5f462aa27274b19297677'],
                                         'vout': 0},
                                        {'prevout': {'generated': False,
                                                     'height': 670637,
                                                     'scriptPubKey': {
                                                         'addresses': ['bc1q24sm03mq7qqllk6m89eyuf8qsudcz9645dc30t'],
                                                         'asm': '0 '
                                                                '5561b7c760f001ffdb5b39724e24e0871b811755',
                                                         'desc': 'addr(bc1q24sm03mq7qqllk6m89eyuf8qsudcz9645dc30t)#myxryukh',
                                                         'hex': '00145561b7c760f001ffdb5b39724e24e0871b811755',
                                                         'reqSigs': 1,
                                                         'type': 'witness_v0_keyhash'},
                                                     'value': 0.004508},
                                         'scriptSig': {'asm': '', 'hex': ''},
                                         'sequence': 4294967294,
                                         'txid': '00dce5b4b5c597dac3b09008929519b3f3e44b689b52657d084f6435d657773d',
                                         'txinwitness': [
                                             '3045022100c1c85c1a3e76570ab6360d8d6fd3dd5b1d636ffb6a1d17b13360cdf7c61ae5160220607d2ee65a2be6a952794c2fe80b5ef1c0ed93e8d46d3df18af05b7741b3fc5001',
                                             '020eee76672ad08fe3bfca0c5475c2f42a6214cfc81bf5c320e1b8fdbe3d3bd4d8'],
                                         'vout': 5},
                                        {'prevout': {'generated': False,
                                                     'height': 674205,
                                                     'scriptPubKey': {
                                                         'addresses': ['bc1qau57jgvweqtrz367pw8h26spwdhvjsuke86k09'],
                                                         'asm': '0 '
                                                                'ef29e9218ec81631475e0b8f756a01736ec94396',
                                                         'desc': 'addr(bc1qau57jgvweqtrz367pw8h26spwdhvjsuke86k09)#m5ev7w28',
                                                         'hex': '0014ef29e9218ec81631475e0b8f756a01736ec94396',
                                                         'reqSigs': 1,
                                                         'type': 'witness_v0_keyhash'},
                                                     'value': 0.29897936},
                                         'scriptSig': {'asm': '', 'hex': ''},
                                         'sequence': 4294967294,
                                         'txid': 'dd8aa68f0542e6d5ae481d80f3a4732fd168f451f85d4faa378a196337d321b4',
                                         'txinwitness': [
                                             '3045022100fd2e17f0139d16872293a7bd5d1d76dba1c0ffb24b25d4f7d198cc251d79983e02201a2433fb0825221daf09f4db0b03591b00516d4fc480184f697c515511f780ed01',
                                             '0313c44990a9110acac74d66c238cec3912978b15980cb86fb90057973f685366e'],
                                         'vout': 17},
                                        {'prevout': {'generated': False,
                                                     'height': 673430,
                                                     'scriptPubKey': {
                                                         'addresses': ['bc1qsdc98nq7uwkhy5qrn4xy33pp8lmdc3m2av7jz8'],
                                                         'asm': '0 '
                                                                '837053cc1ee3ad7250039d4c48c4213ff6dc476a',
                                                         'desc': 'addr(bc1qsdc98nq7uwkhy5qrn4xy33pp8lmdc3m2av7jz8)#706adt3p',
                                                         'hex': '0014837053cc1ee3ad7250039d4c48c4213ff6dc476a',
                                                         'reqSigs': 1,
                                                         'type': 'witness_v0_keyhash'},
                                                     'value': 0.03979368},
                                         'scriptSig': {'asm': '', 'hex': ''},
                                         'sequence': 4294967294,
                                         'txid': '2fd008d068565e0ff63c1e39b0ea91d3105c7924f5bdc28b7d0b7d997a5850c0',
                                         'txinwitness': [
                                             '3045022100f4401971ca772731d05aeed8baf591212fea6cefe271610c68cc899a2e27d8ae02203cc3d5519768c25d238a01bca1c9ff2872bb917b6a7d1e1e66eb93f20af93f9601',
                                             '03fa953904bc49cb2b53653bd90f0981bb986047a4bd274065ca2e37a1e691f3cc'],
                                         'vout': 0},
                                        {'prevout': {'generated': False,
                                                     'height': 673873,
                                                     'scriptPubKey': {
                                                         'addresses': ['bc1q74g6dr7kffd2tmztezynv2yar0usddndrjkheu'],
                                                         'asm': '0 '
                                                                'f551a68fd64a5aa5ec4bc88936289d1bf906b66d',
                                                         'desc': 'addr(bc1q74g6dr7kffd2tmztezynv2yar0usddndrjkheu)#dwyu29jh',
                                                         'hex': '0014f551a68fd64a5aa5ec4bc88936289d1bf906b66d',
                                                         'reqSigs': 1,
                                                         'type': 'witness_v0_keyhash'},
                                                     'value': 0.143},
                                         'scriptSig': {'asm': '', 'hex': ''},
                                         'sequence': 4294967294,
                                         'txid': '4fe7cd8beec3fd13c060dfffc43273ce397dbeb85c50ebb030778904f136b01e',
                                         'txinwitness': [
                                             '304402206b067275c9f1e82ce0c05edf5a668acb3e72caf956375c08751ccb71b6801b430220436ba9fce1d2024e1e8da536641b670805218c11ec7d2bad1b9b228d06adcacd01',
                                             '03217f8ad1e02ffd04ceabf1923786faa1fcc9756e1c3d39c64f03595d607e7a17'],
                                         'vout': 5},
                                        {'prevout': {'generated': False,
                                                     'height': 674205,
                                                     'scriptPubKey': {
                                                         'addresses': ['bc1q8434wfvd8l7jnag9pa3vc6kmyngutcd58233lc'],
                                                         'asm': '0 '
                                                                '3d6357258d3ffd29f5050f62cc6adb24d1c5e1b4',
                                                         'desc': 'addr(bc1q8434wfvd8l7jnag9pa3vc6kmyngutcd58233lc)#uszdlhzc',
                                                         'hex': '00143d6357258d3ffd29f5050f62cc6adb24d1c5e1b4',
                                                         'reqSigs': 1,
                                                         'type': 'witness_v0_keyhash'},
                                                     'value': 0.08574839},
                                         'scriptSig': {'asm': '', 'hex': ''},
                                         'sequence': 4294967294,
                                         'txid': 'dd8aa68f0542e6d5ae481d80f3a4732fd168f451f85d4faa378a196337d321b4',
                                         'txinwitness': [
                                             '3045022100eb14e6e3ba5ff512c58e231d92591956313b6b10a53782a07dcebd76248f550202204d842e8310fa681e48170b3cbf810a76d17e33487e6177ff41f74543492222c901',
                                             '03ca4d5809811eeaf9cce377db2bd7b17016a4eb59236d495589f415faae5fb2a6'],
                                         'vout': 19},
                                        {'prevout': {'generated': False,
                                                     'height': 674225,
                                                     'scriptPubKey': {
                                                         'addresses': ['bc1qwzjjhljzqycg2hjktgaunsu9x20q3wrppl82sd'],
                                                         'asm': '0 '
                                                                '70a52bfe420130855e565a3bc9c385329e08b861',
                                                         'desc': 'addr(bc1qwzjjhljzqycg2hjktgaunsu9x20q3wrppl82sd)#72d9476s',
                                                         'hex': '001470a52bfe420130855e565a3bc9c385329e08b861',
                                                         'reqSigs': 1,
                                                         'type': 'witness_v0_keyhash'},
                                                     'value': 0.04272926},
                                         'scriptSig': {'asm': '', 'hex': ''},
                                         'sequence': 4294967294,
                                         'txid': '2d8019e3dc2bf83390600330d5035973458d5ffcbf34d9510a12e467717a0c8f',
                                         'txinwitness': [
                                             '3045022100b3d09be0f1b725c5593ceec7d82a53321fa406dcd30e4a3c9c0d0ed2f4a3a6e0022077bd4b4650fb2115a92095613fda4a3c35520cbd031656f363bbac2dc550ecbe01',
                                             '020607d72da6c516b4f63ac8d2ef35658101a9c0e1da8147af1dbfa9f78616b92f'],
                                         'vout': 0},
                                        {'prevout': {'generated': False,
                                                     'height': 673981,
                                                     'scriptPubKey': {
                                                         'addresses': ['bc1qa9nrc9wcnky2ucxrjtuswzcwm4lyv579xprwuu'],
                                                         'asm': '0 '
                                                                'e9663c15d89d88ae60c392f9070b0edd7e4653c5',
                                                         'desc': 'addr(bc1qa9nrc9wcnky2ucxrjtuswzcwm4lyv579xprwuu)#sdgqx9d8',
                                                         'hex': '0014e9663c15d89d88ae60c392f9070b0edd7e4653c5',
                                                         'reqSigs': 1,
                                                         'type': 'witness_v0_keyhash'},
                                                     'value': 0.00092},
                                         'scriptSig': {'asm': '', 'hex': ''},
                                         'sequence': 4294967294,
                                         'txid': '2e7a8c48ce9d0a91c4b04780b11d36d0e6c350a588cc0062ab7cab7ebb979a23',
                                         'txinwitness': [
                                             '3044022036a2bd25057c992d03e32735dedc1f3996c3f3b852cf42671c070960e7634f3602203cfacaad32df6d9886fdf82ff14e266070da52b2cc76d287a77db28d30e0eac701',
                                             '021b2a5ab26cecce93aa04071f450c42b8c75b1f5b44ed975f60c0e19d42ee8d32'],
                                         'vout': 7},
                                        {'prevout': {'generated': False,
                                                     'height': 672101,
                                                     'scriptPubKey': {
                                                         'addresses': ['bc1q00terlhwhhdlf0pecn0399dwr27svpltwwzy8n'],
                                                         'asm': '0 '
                                                                '7bd791feeebddbf4bc39c4df1295ae1abd0607eb',
                                                         'desc': 'addr(bc1q00terlhwhhdlf0pecn0399dwr27svpltwwzy8n)#x722uq9k',
                                                         'hex': '00147bd791feeebddbf4bc39c4df1295ae1abd0607eb',
                                                         'reqSigs': 1,
                                                         'type': 'witness_v0_keyhash'},
                                                     'value': 0.00140398},
                                         'scriptSig': {'asm': '', 'hex': ''},
                                         'sequence': 4294967294,
                                         'txid': '4b8ff5cc5a32c7b0a1ac81c33f4f850243369dabe0949df66e868425cca90c2d',
                                         'txinwitness': [
                                             '304402206042e6bc6f40a71bb0a63aa84b9a39c18553fa6d783f5d93af08c6fc0242868e0220232b4d081b6f8f87f0207a09ff66431da6deb86d38d0b5cfaa6cdf0834e5673f01',
                                             '020b7998622b9d1132fa54123c316987c37fd6e22b5dde7d82bf6ee1e2d05e07ea'],
                                         'vout': 5}],
                                'vout': [{'n': 0,
                                          'scriptPubKey': {'addresses': ['bc1qjnavm7lyd4p927lmeuqa4qtdllfqwl5tgt5wwj'],
                                                           'asm': '0 94facdfbe46d42557bfbcf01da816dffd2077e8b',
                                                           'desc': 'addr(bc1qjnavm7lyd4p927lmeuqa4qtdllfqwl5tgt5wwj)#rfp94dwe',
                                                           'hex': '001494facdfbe46d42557bfbcf01da816dffd2077e8b',
                                                           'reqSigs': 1,
                                                           'type': 'witness_v0_keyhash'},
                                          'value': 0.04116232},
                                         {'n': 1,
                                          'scriptPubKey': {'addresses': ['bc1qzecuuqj6s3gx80fx50gwufgchvggevkcds2gaw'],
                                                           'asm': '0 1671ce025a845063bd26a3d0ee2518bb108cb2d8',
                                                           'desc': 'addr(bc1qzecuuqj6s3gx80fx50gwufgchvggevkcds2gaw)#q3ffunq2',
                                                           'hex': '00141671ce025a845063bd26a3d0ee2518bb108cb2d8',
                                                           'reqSigs': 1,
                                                           'type': 'witness_v0_keyhash'},
                                          'value': 0.04116232},
                                         {'n': 2,
                                          'scriptPubKey': {'addresses': ['bc1qlwl8wqxecdw08xcyy3vtene3ry2fagaqawz5hr'],
                                                           'asm': '0 fbbe7700d9c35cf39b042458bccf3119149ea3a0',
                                                           'desc': 'addr(bc1qlwl8wqxecdw08xcyy3vtene3ry2fagaqawz5hr)#3kt2xhns',
                                                           'hex': '0014fbbe7700d9c35cf39b042458bccf3119149ea3a0',
                                                           'reqSigs': 1,
                                                           'type': 'witness_v0_keyhash'},
                                          'value': 0.04116232},
                                         {'n': 3,
                                          'scriptPubKey': {'addresses': ['bc1qtmx9v67tfgkfwrrdpy5z8qhntz7kegutjtphwv'],
                                                           'asm': '0 5ecc566bcb4a2c970c6d09282382f358bd6ca38b',
                                                           'desc': 'addr(bc1qtmx9v67tfgkfwrrdpy5z8qhntz7kegutjtphwv)#lnv2j03l',
                                                           'hex': '00145ecc566bcb4a2c970c6d09282382f358bd6ca38b',
                                                           'reqSigs': 1,
                                                           'type': 'witness_v0_keyhash'},
                                          'value': 0.10183772},
                                         {'n': 4,
                                          'scriptPubKey': {'addresses': ['bc1qdmf802j7k8cekls5u88h3g6qxwju3gwf4ndpjh'],
                                                           'asm': '0 6ed277aa5eb1f19b7e14e1cf78a34033a5c8a1c9',
                                                           'desc': 'addr(bc1qdmf802j7k8cekls5u88h3g6qxwju3gwf4ndpjh)#svcfsprz',
                                                           'hex': '00146ed277aa5eb1f19b7e14e1cf78a34033a5c8a1c9',
                                                           'reqSigs': 1,
                                                           'type': 'witness_v0_keyhash'},
                                          'value': 0.04116232},
                                         {'n': 5,
                                          'scriptPubKey': {'addresses': ['bc1q6jwphcuc3xh6z9gy85a2r0xfuqm6vpxshw4ehw'],
                                                           'asm': '0 d49c1be39889afa115043d3aa1bcc9e037a604d0',
                                                           'desc': 'addr(bc1q6jwphcuc3xh6z9gy85a2r0xfuqm6vpxshw4ehw)#e38ummcq',
                                                           'hex': '0014d49c1be39889afa115043d3aa1bcc9e037a604d0',
                                                           'reqSigs': 1,
                                                           'type': 'witness_v0_keyhash'},
                                          'value': 0.04116232},
                                         {'n': 6,
                                          'scriptPubKey': {'addresses': ['bc1q6s3kag9fqqy0zynq22m663qxul28lv8wcu8xey'],
                                                           'asm': '0 d4236ea0a90008f1126052b7ad4406e7d47fb0ee',
                                                           'desc': 'addr(bc1q6s3kag9fqqy0zynq22m663qxul28lv8wcu8xey)#v8vx77zw',
                                                           'hex': '0014d4236ea0a90008f1126052b7ad4406e7d47fb0ee',
                                                           'reqSigs': 1,
                                                           'type': 'witness_v0_keyhash'},
                                          'value': 0.0620638},
                                         {'n': 7,
                                          'scriptPubKey': {'addresses': ['bc1qwq2mpjxfdhugper0cjy027lyx4xx7qw3u8dz65'],
                                                           'asm': '0 7015b0c8c96df880e46fc488f57be4354c6f01d1',
                                                           'desc': 'addr(bc1qwq2mpjxfdhugper0cjy027lyx4xx7qw3u8dz65)#maa9gtsz',
                                                           'hex': '00147015b0c8c96df880e46fc488f57be4354c6f01d1',
                                                           'reqSigs': 1,
                                                           'type': 'witness_v0_keyhash'},
                                          'value': 0.00589846},
                                         {'n': 8,
                                          'scriptPubKey': {'addresses': ['bc1qql2vzyp4wkjattcx822y027njqjngg268s4wt5'],
                                                           'asm': '0 07d4c1103575a5d5af063a9447abd3902534215a',
                                                           'desc': 'addr(bc1qql2vzyp4wkjattcx822y027njqjngg268s4wt5)#utuf8rxl',
                                                           'hex': '001407d4c1103575a5d5af063a9447abd3902534215a',
                                                           'reqSigs': 1,
                                                           'type': 'witness_v0_keyhash'},
                                          'value': 0.04458692},
                                         {'n': 9,
                                          'scriptPubKey': {'addresses': ['bc1q0xvr6pefhe8dllnfj3etu9lwgc8pt08g4e72zv'],
                                                           'asm': '0 79983d0729be4edffe699472be17ee460e15bce8',
                                                           'desc': 'addr(bc1q0xvr6pefhe8dllnfj3etu9lwgc8pt08g4e72zv)#3ygaf32e',
                                                           'hex': '001479983d0729be4edffe699472be17ee460e15bce8',
                                                           'reqSigs': 1,
                                                           'type': 'witness_v0_keyhash'},
                                          'value': 0.00057603},
                                         {'n': 10,
                                          'scriptPubKey': {'addresses': ['bc1qg8hzq4n6jqlxjqdjzpvls9eu42xlnvzl4zyfnr'],
                                                           'asm': '0 41ee20567a903e6901b21059f8173caa8df9b05f',
                                                           'desc': 'addr(bc1qg8hzq4n6jqlxjqdjzpvls9eu42xlnvzl4zyfnr)#3y0cmnyx',
                                                           'hex': '001441ee20567a903e6901b21059f8173caa8df9b05f',
                                                           'reqSigs': 1,
                                                           'type': 'witness_v0_keyhash'},
                                          'value': 0.04116232},
                                         {'n': 11,
                                          'scriptPubKey': {'addresses': ['bc1qr85ljpvc5q4ggnknyvnrjakgq965ffxxr3y2dn'],
                                                           'asm': '0 19e9f90598a02a844ed323263976c8017544a4c6',
                                                           'desc': 'addr(bc1qr85ljpvc5q4ggnknyvnrjakgq965ffxxr3y2dn)#qr4034dm',
                                                           'hex': '001419e9f90598a02a844ed323263976c8017544a4c6',
                                                           'reqSigs': 1,
                                                           'type': 'witness_v0_keyhash'},
                                          'value': 0.04116232},
                                         {'n': 12,
                                          'scriptPubKey': {'addresses': ['bc1q9lpj4xcra4sf0wp490kxsy8s6z2vu0sex7zfwp'],
                                                           'asm': '0 2fc32a9b03ed6097b8352bec6810f0d094ce3e19',
                                                           'desc': 'addr(bc1q9lpj4xcra4sf0wp490kxsy8s6z2vu0sex7zfwp)#thdzhz5h',
                                                           'hex': '00142fc32a9b03ed6097b8352bec6810f0d094ce3e19',
                                                           'reqSigs': 1,
                                                           'type': 'witness_v0_keyhash'},
                                          'value': 0.25781766}],
                                'vsize': 1161,
                                'weight': 4643}
