simple_transaction = {'txid': 'dde13831553ccfc48fb6ef3237ebea81a87ab67de53ed5d6476d44d61a6d37cc',
                      'hash': '9a47c3bee0e4327b7587918a614ecb7c59c5882de005cbf718c3611ced26357d',
                      'version': 1,
                      'size': 249,
                      'vsize': 168,
                      'weight': 669,
                      'locktime': 0,
                      'vin': [{'txid': '51380e6d281e942eb2fd7109cd6a72799a9640e17f24034d96c4a9f4704cd29b',
                               'vout': 1,
                               'scriptSig': {'asm': '001464e7078aed99ff42d85336ab14bbabd4b91f62a5',
                                             'hex': '16001464e7078aed99ff42d85336ab14bbabd4b91f62a5'},
                               'txinwitness': [
                                   '30440220135bb121e625901984648652d852c11c1bb403c5dcdae472e98bf718684b0e98022033776f6c17f0446bd464bcb885916e31540837ff284eb89e1efdd95d67cefeea01',
                                   '03ac9e9b95ac474cc2668bfa9202b6d7a30758330cb2ba1ef143172fbfd8ba48e1'],
                               'prevout': {'height': 648563,
                                           'value': 2.17370429,
                                           'generated': False,
                                           'scriptPubKey': {
                                               'asm': 'OP_HASH160 e1a4aced802d595e6e13a4dbba46d0cf882159bc OP_EQUAL',
                                               'desc': 'addr(3NG7EZRcHpmaGzJkopBUbiTqSvDfJmX4eo)#r554huv5',
                                               'hex': 'a914e1a4aced802d595e6e13a4dbba46d0cf882159bc87',
                                               'reqSigs': 1,
                                               'type': 'scripthash',
                                               'addresses': ['3NG7EZRcHpmaGzJkopBUbiTqSvDfJmX4eo']}},
                               'sequence': 16777215}],
                      'vout': [{'value': 0.00922158,
                                'n': 0,
                                'scriptPubKey': {
                                    'asm': 'OP_DUP OP_HASH160 b519cdc70f643dbf664916a4eadb99f9de324944 OP_EQUALVERIFY OP_CHECKSIG',
                                    'desc': 'addr(1HWaDbvKnK2qwsRDmHMVg6yQA9hgb2ALNH)#ps4lanaf',
                                    'hex': '76a914b519cdc70f643dbf664916a4eadb99f9de32494488ac',
                                    'reqSigs': 1,
                                    'type': 'pubkeyhash',
                                    'addresses': ['1HWaDbvKnK2qwsRDmHMVg6yQA9hgb2ALNH']}},
                               {'value': 2.16317735,
                                'n': 1,
                                'scriptPubKey': {'asm': 'OP_HASH160 aa8efddf111b79a720151fa2b7740562029e0e20 OP_EQUAL',
                                                 'desc': 'addr(3HEr6PeqQaeqi2w4qTriydAqJ2aLQ2Y4yz)#klhvt55g',
                                                 'hex': 'a914aa8efddf111b79a720151fa2b7740562029e0e2087',
                                                 'reqSigs': 1,
                                                 'type': 'scripthash',
                                                 'addresses': ['3HEr6PeqQaeqi2w4qTriydAqJ2aLQ2Y4yz']}}],
                      'fee': 0.00130536,
                      'hex': '010000000001019bd24c70f4a9c4964d03247fe140969a79726acd0971fdb22e941e286d0e3851010000001716001464e7078aed99ff42d85336ab14bbabd4b91f62a5ffffff00022e120e00000000001976a914b519cdc70f643dbf664916a4eadb99f9de32494488ac27bfe40c0000000017a914aa8efddf111b79a720151fa2b7740562029e0e2087024730440220135bb121e625901984648652d852c11c1bb403c5dcdae472e98bf718684b0e98022033776f6c17f0446bd464bcb885916e31540837ff284eb89e1efdd95d67cefeea012103ac9e9b95ac474cc2668bfa9202b6d7a30758330cb2ba1ef143172fbfd8ba48e100000000'}

coinbase_transaction = {'txid': 'aefaf56793980778f4ed2d5d1900a4e99a9029966b0897ae35ad3d6c6a6d1e5d',
                        'hash': 'deaf80587bfaa613d3431d537ce024844a426e0cbad835c3b22ab4a689611447',
                        'version': 1,
                        'size': 362,
                        'vsize': 335,
                        'weight': 1340,
                        'locktime': 2192709790,
                        'vin': [{
                            'coinbase': '0347e609046998635f2f706f6f6c696e2e636f6d2ffabe6d6d092f11a0c31abafdc2ecf84f0aedd3745a6ce7e38d139dabc350f0822caa6500010000000000000013d3f5221eab97eaca195f9135a260ca118042487c00d10e000000000000',
                            'sequence': 4294967295}],
                        'vout': [{'value': 7.07505391,
                                  'n': 0,
                                  'scriptPubKey': {
                                      'asm': 'OP_DUP OP_HASH160 0c0271699741cd1211149dd12ad126a901e156da OP_EQUALVERIFY OP_CHECKSIG',
                                      'desc': 'addr(126W33f3fJaVzPT57pVFBZZt7PUCTHnH7J)#ngaq07lg',
                                      'hex': '76a9140c0271699741cd1211149dd12ad126a901e156da88ac',
                                      'reqSigs': 1,
                                      'type': 'pubkeyhash',
                                      'addresses': ['126W33f3fJaVzPT57pVFBZZt7PUCTHnH7J']}},
                                 {'value': 0.0,
                                  'n': 1,
                                  'scriptPubKey': {
                                      'asm': 'OP_RETURN b9e11b6ddb0c62141cbe45c5b522078272bd84299aef6d2e8d242ab191279515f5403b42',
                                      'desc': 'raw(6a24b9e11b6ddb0c62141cbe45c5b522078272bd84299aef6d2e8d242ab191279515f5403b42)#ndae0wwx',
                                      'hex': '6a24b9e11b6ddb0c62141cbe45c5b522078272bd84299aef6d2e8d242ab191279515f5403b42',
                                      'type': 'nulldata'}},
                                 {'value': 0.0,
                                  'n': 2,
                                  'scriptPubKey': {
                                      'asm': 'OP_RETURN aa21a9ed78fcc704c9d050d9268f2b795a524b1abbeb788847a9034eee265859c15cb7d5',
                                      'desc': 'raw(6a24aa21a9ed78fcc704c9d050d9268f2b795a524b1abbeb788847a9034eee265859c15cb7d5)#4pfueymj',
                                      'hex': '6a24aa21a9ed78fcc704c9d050d9268f2b795a524b1abbeb788847a9034eee265859c15cb7d5',
                                      'type': 'nulldata'}},
                                 {'value': 0.0,
                                  'n': 3,
                                  'scriptPubKey': {
                                      'asm': 'OP_RETURN 52534b424c4f434b3ad6325604cdf5ccbe90c81da877c485eb6062bf0449ebed954d378333002953c9',
                                      'desc': 'raw(6a2952534b424c4f434b3ad6325604cdf5ccbe90c81da877c485eb6062bf0449ebed954d378333002953c9)#yn3cltdp',
                                      'hex': '6a2952534b424c4f434b3ad6325604cdf5ccbe90c81da877c485eb6062bf0449ebed954d378333002953c9',
                                      'type': 'nulldata'}}],
                        'hex': '010000000001010000000000000000000000000000000000000000000000000000000000000000ffffffff5f0347e609046998635f2f706f6f6c696e2e636f6d2ffabe6d6d092f11a0c31abafdc2ecf84f0aedd3745a6ce7e38d139dabc350f0822caa6500010000000000000013d3f5221eab97eaca195f9135a260ca118042487c00d10e000000000000ffffffff04efac2b2a000000001976a9140c0271699741cd1211149dd12ad126a901e156da88ac0000000000000000266a24b9e11b6ddb0c62141cbe45c5b522078272bd84299aef6d2e8d242ab191279515f5403b420000000000000000266a24aa21a9ed78fcc704c9d050d9268f2b795a524b1abbeb788847a9034eee265859c15cb7d500000000000000002b6a2952534b424c4f434b3ad6325604cdf5ccbe90c81da877c485eb6062bf0449ebed954d378333002953c9012000000000000000000000000000000000000000000000000000000000000000009e18b282'}

same_output_type_tx = {'txid': '2fbcc3d8a972c637fd94c92b283755960430164d3b492f93f1174f7b8aa71d13',
                       'hash': '2fbcc3d8a972c637fd94c92b283755960430164d3b492f93f1174f7b8aa71d13',
                       'version': 1,
                       'size': 367,
                       'vsize': 367,
                       'weight': 1468,
                       'locktime': 0,
                       'vin': [{'txid': '0eed4aca302e19b6f824922be6d5aadf77758a5c786d877d1ee22d60d0ccf0e2',
                                'vout': 1,
                                'scriptSig': {
                                    'asm': '0 304402201dc09737de3204d8bc577cbc0a6956bf696b7ebf2a30fe256076e2438f674886022033ad4ed4a86f566d7340cd56179a2c4fd0f13d56a2c352973c4dc02762bc33ca[ALL] 3044022055c28eceabaaf4a2284ddcc254577e62e99945835ca3f0815f7dac18a1b81862022045356be8ccb1472b192aa919b30ed556d988829986a2ab4c0aac69218296b2c5[ALL] 52210234d132bc9458cf461a6619af47f815bf0f875937956e388cac97ee58145457132102b67df1461ddd5448acc4bd24d24cdb5e845f69ce33b7df8d9534f3cebe3f63412103cf5f3912120bacbc731417937138ac92cfe9c93dd53e5b4eeb115b42da62009453ae',
                                    'hex': '0047304402201dc09737de3204d8bc577cbc0a6956bf696b7ebf2a30fe256076e2438f674886022033ad4ed4a86f566d7340cd56179a2c4fd0f13d56a2c352973c4dc02762bc33ca01473044022055c28eceabaaf4a2284ddcc254577e62e99945835ca3f0815f7dac18a1b81862022045356be8ccb1472b192aa919b30ed556d988829986a2ab4c0aac69218296b2c5014c6952210234d132bc9458cf461a6619af47f815bf0f875937956e388cac97ee58145457132102b67df1461ddd5448acc4bd24d24cdb5e845f69ce33b7df8d9534f3cebe3f63412103cf5f3912120bacbc731417937138ac92cfe9c93dd53e5b4eeb115b42da62009453ae'},
                                'prevout': {'height': 648774,
                                            'value': 298.99779509,
                                            'generated': False,
                                            'scriptPubKey': {
                                                'asm': 'OP_HASH160 d2ed0a8e19323da5c563a9ff28599b7e4c9c054d OP_EQUAL',
                                                'desc': 'addr(3LvHnjxy3LTaGWJmpvEzQ9FTZ61hWwNSUA)#erf7y9s9',
                                                'hex': 'a914d2ed0a8e19323da5c563a9ff28599b7e4c9c054d87',
                                                'reqSigs': 1,
                                                'type': 'scripthash',
                                                'addresses': ['3LvHnjxy3LTaGWJmpvEzQ9FTZ61hWwNSUA']}},
                                'sequence': 4294967295}],
                       'vout': [{'value': 0.001,
                                 'n': 0,
                                 'scriptPubKey': {'asm': 'OP_HASH160 9cce5ff3d32bcb60b82468204b4610f5f5ed6a01 OP_EQUAL',
                                                  'desc': 'addr(3Fz8ZeEYb4kpBMqAwviakpHR8ZnZYybntt)#58c6mmel',
                                                  'hex': 'a9149cce5ff3d32bcb60b82468204b4610f5f5ed6a0187',
                                                  'reqSigs': 1,
                                                  'type': 'scripthash',
                                                  'addresses': ['3Fz8ZeEYb4kpBMqAwviakpHR8ZnZYybntt']}},
                                {'value': 298.99504326,
                                 'n': 1,
                                 'scriptPubKey': {'asm': 'OP_HASH160 d2c746e66ae685f7a990f527fa924a5e2f74ec32 OP_EQUAL',
                                                  'desc': 'addr(3LuWYqJV7ZNK5dKHMifvqYhgGCnDfrSFhU)#mwt0fpr2',
                                                  'hex': 'a914d2c746e66ae685f7a990f527fa924a5e2f74ec3287',
                                                  'reqSigs': 1,
                                                  'type': 'scripthash',
                                                  'addresses': ['3LuWYqJV7ZNK5dKHMifvqYhgGCnDfrSFhU']}}],
                       'fee': 0.00175183,
                       'hex': '0100000001e2f0ccd0602de21e7d876d785c8a7577dfaad5e62b9224f8b6192e30ca4aed0e01000000fc0047304402201dc09737de3204d8bc577cbc0a6956bf696b7ebf2a30fe256076e2438f674886022033ad4ed4a86f566d7340cd56179a2c4fd0f13d56a2c352973c4dc02762bc33ca01473044022055c28eceabaaf4a2284ddcc254577e62e99945835ca3f0815f7dac18a1b81862022045356be8ccb1472b192aa919b30ed556d988829986a2ab4c0aac69218296b2c5014c6952210234d132bc9458cf461a6619af47f815bf0f875937956e388cac97ee58145457132102b67df1461ddd5448acc4bd24d24cdb5e845f69ce33b7df8d9534f3cebe3f63412103cf5f3912120bacbc731417937138ac92cfe9c93dd53e5b4eeb115b42da62009453aeffffffff02a08601000000000017a9149cce5ff3d32bcb60b82468204b4610f5f5ed6a0187c63a26f60600000017a914d2c746e66ae685f7a990f527fa924a5e2f74ec328700000000'}
